:100000000C9446000C9465000C9465000C946500FB
:100010000C9465000C9465000C9465000C946500CC
:100020000C9465000C9465000C9465000C946500BC
:100030000C9465000C9465000C9465000C946500AC
:100040000C94AC000C9465000C9465000C94650055
:100050000C9465000C9465000C9465000C9465008C
:100060000C9465000C9465000C9465000C9465007C
:100070000C9465000C9465000C9465000C9465006C
:100080000C9465000C9465000C94650011241FBE4F
:10009000CFEFD0E1DEBFCDBF11E0A0E0B1E0ECE5F5
:1000A000F2E000E00BBF02C007900D92A034B10750
:1000B000D9F711E0A0E4B1E001C01D92A238B10768
:1000C000E1F70E9467000C942C010C94000087E17A
:1000D00087BB88E18093640084E882B980916500E1
:1000E0008061809365000E94870020E030E0F90184
:1000F000EE5BFE4FD901A050BF4F8C9180832F5FE4
:100100003F4F2034310599F70E94A300FFCF86E0CE
:1001100088BB81E58DB908958FB9779BFECF08958F
:10012000813039F0813060F0823029F0833041F441
:1001300004C01F9A06C01F9801C01F9AC49A089550
:100140001F98C498089587B7816087BF87EB82BFE7
:1001500085E083BF789408951F920F920FB60F9297
:100160000BB60F9211242F933F934F935F936F938E
:100170007F938F939F93AF93BF93EF93FF9383B737
:100180008A7F83BF80914001882309F446C0109282
:100190004001A09141018A2F992787FD90950C96E7
:1001A000AC01440F551F440F551F0C979C01220FA3
:1001B000331F220F331F2E5C3E4FBC01635F7F4F06
:1001C000660F771F660F771F11C0808180958FB9EA
:1001D000779BFECF7097E217F307B9F74F5F5F4F3A
:1001E0009F012F5F3F4F4617570721F0FA01EE5B43
:1001F000FE4FEBCF8A2F0E949000809141018F5FCC
:1002000080934101843014F0109241018091650087
:100210008860809365008DEF09C081E08093400184
:1002200080916500877F8093650087EB82BF85E0C2
:1002300083BFFF91EF91BF91AF919F918F917F917C
:100240006F915F914F913F912F910F900BBE0F9047
:0C0250000FBE0F901F901895F894FFCF80
:10025C000000000000000000000000007ED7D980E4
:10026C007ED65B0060D61E0060D61C0060D61800DF
:10027C0078D61C0060D61E0060D6DF0060F7DB80ED
:10028C0060F7D9C000000000000000000000000072
:00000001FF
